:100000000C9434000C9446000C9446000C9446006A
:100010000C9446000C9446000C9446000C94460048
:100020000C9446000C9446000C9446000C94460038
:100030000C9446000C9446000C9446000C94460028
:100040000C9446000C9446000C9446000C94460018
:100050000C9446000C9446000C9446000C94460008
:100060000C9446000C94460011241FBECFEFD8E03C
:10007000DEBFCDBF11E0A0E0B1E001C01D92A6300F
:10008000B107E1F70E94FB000C942A010C940000D8
:10009000CF92DF92EF92FF920F931F93CF93DF9354
:1000A0007C019B018C0197FF02C00F5F1F4F1595CC
:1000B000079517FF03C01195019511098FEF90E087
:1000C000B7010E940201629F6001639FD00C729F82
:1000D000D00C1124D7FE03C0D194C194D108C0E044
:1000E000D0E0CE15DF0584F58C2F2C2FC0930101B5
:1000F0009E2D9C1B90930001C017D10714F4200F74
:1001000002C02C2F201B20930201809303019093A7
:100110000501C017D10714F4800F01C0801B809324
:10012000040162E070E080E091E00E94E900C60115
:10013000009741F0EFECF7E03197F1F700C00000D5
:100140000197F6CF2196CDCFDF91CF911F910F91DF
:10015000FF90EF90DF90CF90089524B1242B24B925
:1001600035B1242F2095232335B1342B4FB7F89484
:10017000FC01680F791FE617F707E1F0819198E01D
:1001800035B987FF25B9880F000000C025B90000E8
:1001900000C000C000C000C000C000C000C000C05F
:1001A00000C000C000C000C000C000C000C09A95E0
:1001B00039F7E1CF4FBF08959B01220F331F260F60
:1001C000371FB9010E94AD0085E88A95F1F700005C
:1001D000089541E00C94DC00660F771F660F771FCF
:1001E00041E00E94AD0085ED8A95F1F70000089589
:1001F00041E00C94AD006AE070E08AE090E00E947B
:100200004800F9CF97FB072E16F4009407D077FD2E
:1002100009D00E94160107FC05D03EF49095819507
:100220009F4F0895709561957F4F0895AA1BBB1B42
:1002300051E107C0AA1FBB1FA617B70710F0A61BE6
:10024000B70B881F991F5A95A9F780959095BC0107
:08025000CD010895F894FFCFE1
:00000001FF
