:100000000C9434000C9446000C9446000C9446006A
:100010000C9446000C9446000C9446000C94460048
:100020000C9446000C9446000C9446000C94460038
:100030000C9446000C9446000C9446000C94460028
:100040000C9446000C9446000C9446000C94460018
:100050000C9446000C9446000C9446000C94460008
:100060000C9446000C94460011241FBECFEFD8E03C
:10007000DEBFCDBF11E0A0E0B1E001C01D92A6300F
:10008000B107E1F70E9496000C94CD000C9400009B
:1000900024B1242B24B935B1242F2095232335B145
:1000A000342B4FB7F894FC01680F791FE617F70758
:1000B000E1F0819198E035B987FF25B9880F0000FC
:1000C00000C025B9000000C000C000C000C000C0D2
:1000D00000C000C000C000C000C000C000C000C020
:1000E00000C000C09A9539F7E1CF4FBF08959B013A
:1000F000220F331F260F371FB9010E94480085E8E1
:100100008A95F1F70000089541E00C947700660F9E
:10011000771F660F771F41E00E94480085ED8A95A2
:10012000F1F70000089541E00C944800209AC0E0E7
:10013000D0E01AE08C2F2C2FC0930101912F9C1B33
:1001400090930001C530D10514F42B5F02C02C2F11
:100150002550209302018093030190930501C5303F
:10016000D10514F48B5F01C085508093040162E0D7
:1001700070E080E091E00E9484008FE79AE126E041
:10018000815090402040E1F700C000002196CA3025
:0E019000D10584F2C0E0D0E0CDCFF894FFCFCF
:00000001FF
